:020000040000FA
:100000000C9462000C948A000C948A000C948A0070
:100010000C948A000C948A000C948A000C948A0038
:100020000C948A000C948A000C948A000C948A0028
:100030000C948A000C948A000C948A000C948A0018
:100040000C94EE040C948A000C948A000C948A00A0
:100050000C948A000C948A000C948A000C948A00F8
:100060000C9438050C948A0000000000240027003E
:100070002A0000000000250028002B0000000008D6
:10008000000201000003040700000000000000005F
:1000900000000000230026002900040404040404D6
:1000A0000404020202020202030303030303010227
:1000B00004081020408001020408102001020408F6
:1000C00010209C0611241FBECFEFD8E0DEBFCDBFAD
:1000D00011E0A0E0B1E0ECE8F3E102C005900D9280
:1000E000AA34B107D9F722E0AAE4B1E001C01D9219
:1000F000AD32B207E1F710E0C2E6D0E004C02197CC
:10010000FE010E94BE09C136D107C9F70E94BC0694
:100110000C94C4090C940000833081F028F48130E1
:1001200099F08230A9F008958730A9F08830C9F09D
:100130008430B1F4809180008F7D03C08091800075
:100140008F7780938000089584B58F7784BD08955C
:1001500084B58F7DFBCF8091B0008F778093B00006
:1001600008958091B0008F7DF9CFCF93DF93282F32
:1001700030E0F901E458FF4F8491F901E255FF4F57
:10018000D491F901E656FF4FC491CC23A1F081111F
:100190000E948C00EC2FF0E0EE0FFF1FE057FF4FA6
:1001A000A591B491EC91ED2381E090E009F480E019
:1001B000DF91CF91089580E090E0FACF1F93CF9325
:1001C000DF93282F30E0F901E458FF4F8491F901C3
:1001D000E255FF4FD491F901E656FF4FC491CC236D
:1001E000A9F0162F81110E948C00EC2FF0E0EE0F89
:1001F000FF1FEE58FF4FA591B4918FB7F894EC9183
:10020000111108C0D095DE23DC938FBFDF91CF9111
:100210001F910895DE2BF8CFCF93DF9390E0FC0180
:10022000E255FF4F249186569F4FFC01849188230D
:10023000C9F090E0880F991FFC01E859FF4FA59184
:10024000B491FC01EE58FF4FC591D49161110DC0DE
:100250009FB7F8948C91209582238C9388812823D2
:1002600028839FBFDF91CF910895623051F49FB7EB
:10027000F8943C91822F809583238C93E8812E2BD8
:10028000EFCF8FB7F894EC912E2B2C938FBFEACF42
:100290003FB7F8948091110290911202A09113023D
:1002A000B091140226B5A89B05C02F3F19F0019606
:1002B000A11DB11D3FBFBA2FA92F982F8827BC01C0
:1002C000CD01620F711D811D911D42E0660F771FE8
:1002D000881F991F4A95D1F708958F929F92AF92E8
:1002E000BF92CF92DF92EF92FF924B015C010E948E
:1002F00048016B017C010E9448016C197D098E093F
:100300009F09683E734081059105A8F321E0821A98
:100310009108A108B10888EEC80E83E0D81EE11C40
:10032000F11C81149104A104B10429F7FF90EF900E
:10033000DF90CF90BF90AF909F908F9008950895D9
:100340000895AF92BF92CF92DF92EF92FF920F93F8
:100350001F93CF93DF936C017B018B01040F151F5B
:10036000EB015E01AE18BF08C017D10759F06991C3
:10037000D601ED91FC910190F081E02DC601099527
:10038000892B79F7C501DF91CF911F910F91FF90D4
:10039000EF90DF90CF90BF90AF9008950895209197
:1003A0008B01260F3327331F21323105ECF42091C6
:1003B000D401FC0190E080E0243069F082E00895EF
:1003C000A0918B012191AC0145595E4FA40FB52F2F
:1003D000B11D2C930196861798F380918B01680FBD
:1003E00060938B0180E0089581E008951092D4011C
:1003F00081E08093D3011092AE0161E082E10E941E
:10040000DE0061E083E10E94DE00E9EBF0E0808144
:100410008E7F808380818D7F808388E48093B80085
:1004200085E48093BC000895CF93DF9391E090938F
:100430006A018823B9F0C091B800D091BA008091C8
:10044000BC008A7B8093BC0060E082E10E94DE00F9
:1004500060E083E10E94DE000E94F601D093BA00C2
:10046000C093B800DF91CF9108950895E091030201
:1004700080910202E81730F4F0E0E65BFE4F8081E5
:1004800090E008958FEF9FEF08959091030280917F
:1004900002022FEF3FEF981748F4E92FF0E0E65BF8
:1004A000FE4F208130E09F5F90930302C9010895C1
:1004B0008091020290910302891B990B0895CF92BB
:1004C000DF92EF92FF920F931F93CF93DF937C0104
:1004D000CB018A012091DA01222389F0EB016B0123
:1004E000C40ED51ECC15DD0569F06991D701ED91DB
:1004F000FC910190F081E02DC7010995F3CF642FA5
:100500000E94CF01C801DF91CF911F910F91FF9001
:10051000EF90DF90CF900895CF93DF931F92CDB7E8
:10052000DEB769832091DA012223F9F020910002DD
:10053000203258F021E030E0FC013383228390E048
:1005400080E00F90DF91CF91089580910102E82F14
:10055000F0E0E552FE4F998190838F5F8093010216
:100560008093000281E090E0ECCF61E0CE01019643
:100570000E94CF01F7CFCF92DF92EF92FF920F93BD
:100580001F93CF93DF93FC01C48121E02093DA0114
:10059000C093FB0110920102109200028385682B28
:1005A00085E192E00E948C02D0910002D13208F0E5
:1005B00092C00E9448016B017C018091D40181119D
:1005C00065C082E08093D40181E08093D3018FEFF6
:1005D0008093D2011092D101D093D001ABEDB1E064
:1005E000E0EBF1E080E0D81385C01092AF0180917C
:1005F000AF01CC0FC82BC093AF018091AE01813009
:1006000009F07CC01092AE010E9448016B017C0190
:100610008091AF018093BB008091D6019091D7016A
:10062000A091D801B091D901892B8A2B8B2B99F0FD
:100630000E9448010091D6011091D7012091D80164
:100640003091D9016C197D098E099F09061717078A
:1006500028073907E0F18091BC0083FDD9CF85ECF4
:100660008093BC000E9448016B017C018091D40101
:10067000823009F445C08091D2018F3F61F18091B1
:10068000D201803241F18091D20125C08091D60102
:100690009091D701A091D801B091D901892B8A2BD3
:1006A0008B2B09F48ACF0E9448010091D60110914A
:1006B000D7012091D8013091D9016C197D098E099B
:1006C0009F09061717072807390708F076CF80918A
:1006D000D5010E94140210920102109200021092A1
:1006E000DA01DF91CF911F910F91FF90EF90DF9092
:1006F000CF9008959D9191938F5F75CF85EEB0CF88
:100700008091D6019091D701A091D801B091D901E3
:10071000892B8A2B8B2B09F4A9CF0E9448010091C9
:10072000D6011091D7012091D8013091D9016C19CF
:100730007D098E099F09061717072807390708F052
:1007400095CFC5CF90E080E008958F929F92AF92B1
:10075000BF920F931F93CF93DF93CDB7DEB7A197CF
:100760000FB6F894DEBF0FBECDBF19A2423008F419
:100770004AE08E010F5D1F4F842E912CB12CA12CCD
:10078000A50194010E949C09E62FB901CA01EA3033
:1007900044F5E05DD801EE938D01232B242B252B0E
:1007A00079F790E080E0109769F0FD01019000205A
:1007B000E9F73197AF014A1B5B0BBD0181E292E083
:1007C0000E94A101A1960FB6F894DEBF0FBECDBF67
:1007D000DF91CF911F910F91BF90AF909F908F901D
:1007E0000895E95CD7CFFC0101900020E9F731972B
:1007F000AF01481B590BBC0181E292E00C94A101AE
:100800000F931F93CF938C01C62F0E94BB026C2FB6
:100810006460C8010E94BB026C2F6B7FC8010E94FC
:10082000BB0283EC90E00197F1F7CF911F910F91FC
:1008300008950F931F93CF93DF938C01D62FC42F6E
:10084000607F642B0E94000480E1D89FB0011124D6
:100850006C2BC801DF91CF911F910F910C94000474
:1008600041E00E94190481E090E00895CF92DF9268
:10087000EF92FF926C01990FEE08FF08F7FE16C089
:1008800041E06DE281E292E00E9419046627772739
:10089000CB016C197D098E099F094AE00E94A503CE
:1008A0000196FF90EF90DF90CF9008954AE0C70146
:1008B000B601FF90EF90DF90CF900C94A503CF93FB
:1008C000DF93CDB7DEB728970FB6F894DEBF0FBE23
:1008D000CDBF98E0E0E0F1E0DE01119601900D92CD
:1008E0009A95E1F790912902981708F48FEF90E01C
:1008F000880F991F21E030E02C0F3D1F820F931FBE
:10090000FC016081606840E081E292E028960FB6C9
:10091000F894DEBF0FBECDBFDF91CF910C941904C8
:100920000F931F9390E0FC01E255FF4F6491FC018F
:10093000E656FF4FE491F0E0EE0FFF1FE057FF4F48
:100940008591949100E412E42FE030E0462F0E945C
:100950005706611571058105910529F06F5F7F4F7D
:100960008F4F9F4F9F701F910F91089585ED80933A
:10097000BC008091D6019091D701A091D801B0918F
:10098000D9010796A11DB11D23E0B695A7959795AE
:1009900087952A95D1F72091BC0024FD03C01092C1
:1009A000D40108954091D6015091D7016091D801AA
:1009B0007091D901452B462B472B69F30097A10570
:1009C000B10541F02AE22A95F1F700C00197A1098B
:1009D000B109E1CF8091D5010C9414021F920F92BE
:1009E0000FB60F9211242F933F938F939F93AF9342
:1009F000BF9380910D0290910E02A0910F02B091D1
:100A0000100230910C0223E0230F2D3758F5019688
:100A1000A11DB11D20930C0280930D0290930E0234
:100A2000A0930F02B09310028091110290911202D4
:100A3000A0911302B09114020196A11DB11D8093E3
:100A4000110290931202A0931302B0931402BF916B
:100A5000AF919F918F913F912F910F900FBE0F906B
:100A60001F90189526E8230F0296A11DB11DD2CF25
:100A70001F920F920FB60F9211242F933F934F9313
:100A80005F936F937F938F939F93AF93BF93EF93F6
:100A9000FF938091B900887F803609F44AC0F0F551
:100AA000883209F4A7C018F5803109F49BC0B8F466
:100AB000882309F4F9C0883009F494C0FF91EF91BC
:100AC000BF91AF919F918F917F916F915F914F9166
:100AD0003F912F910F900FBE0F901F901895883166
:100AE00009F488C0803251F78093D20114C0803459
:100AF00009F49DC040F48033B9F38833F9F680934C
:100B0000D20185ECB0C0803509F485C0883509F480
:100B100096C0883499F60E94B604D0CF883909F47B
:100B20008CC038F5883729F050F4883611F08037BA
:100B300029F683E08093D4011092AD0157C0883824
:100B400009F47BC0803919F0803809F0B7CF809163
:100B5000AD01803208F071C0E091AD0181E08E0FEF
:100B60008093AD018091BB00F0E0E357FE4F80839E
:100B70003DC0803B39F0E0F4803A09F479C0883A0E
:100B800009F09CCF84E08093D40110928C011092E4
:100B90008B01E091FE01F091FF01099580918B019D
:100BA00081110FC081E080938B0110926B0109C00D
:100BB000803C09F4A6CF883C09F4A3CF883B09F018
:100BC0007DCFE0918C0181E08E0F80938C01F0E06D
:100BD000E559FE4F80818093BB0090918C018091FC
:100BE0008B0129C08091AF018093BB0085EC80937D
:100BF000BC0064CF9091D1018091D001981758F535
:100C0000E091D10181E08E0F8093D101F0E0E055B9
:100C1000FE4F8081E9CFE091D10181E08E0F80937A
:100C2000D1018091BB00F0E0E055FE4F80839091B0
:100C3000D1018091D0019817C8F285E8D8CFE09112
:100C4000D10181E08E0F8093D1018091BB00F0E053
:100C5000E055FE4F80838091D30181115CCF81E00C
:100C60008093AE0184EA8093BC001092D40126CF19
:100C700085EC8093BC001092D4018091AD0180324C
:100C800030F4E091AD01F0E0E357FE4F1082609147
:100C9000AD0170E0E091FC01F091FD018DE891E083
:100CA00009951092AD010ACF1092D20134CFCF92A4
:100CB000DF92EF92FF920F931F93E82FF92F05C059
:100CC000015011092109310961F19081962394178E
:100CD000B9F305C0015011092109310911F19081C1
:100CE00096239413F7CFC12CD12CE12CF12C0AC000
:100CF0008FEFC81AD80AE80AF80A0C151D052E0548
:100D00003F0579F080818623841791F36C2D7D2D2A
:100D10008E2D9F2D1F910F91FF90EF90DF90CF9020
:100D2000089560E070E080E090E01F910F91FF90E7
:100D3000EF90DF90CF900895E5E1F2E01382128208
:100D400088EE93E0A0E0B0E084839583A683B78328
:100D50008CE091E091838083E1E2F2E013821282E1
:100D60008EE191E09183808380E2848380E18187BA
:100D700082E0828713860895789484B5826084BD6A
:100D800084B5816084BD85B5826085BD85B581608F
:100D900085BD80916E00816080936E00109281000D
:100DA00080918100826080938100809181008160C8
:100DB0008093810080918000816080938000809189
:100DC000B10084608093B1008091B0008160809315
:100DD000B00080917A00846080937A0080917A00DC
:100DE000826080937A0080917A00816080937A009B
:100DF00080917A00806880937A001092C1001092EE
:100E000003021092020210920102109200020E944C
:100E1000F6018FE991E09093FF018093FE0180EA53
:100E200091E09093FD018093FC0110922602809145
:100E30002B02823018F098E09093260280932902CA
:100E400062E370E080E090E00E946D0160912C020E
:100E500081E292E00E94BB0268EE73E080E090E0E5
:100E60000E946D0160E381E292E00E940004CBE405
:100E7000D6E4CE010197F1F760E381E292E00E94AF
:100E800000042197F1F760E381E292E00E94000400
:100E900083E592E00197F1F760E281E292E00E943F
:100EA000000460912602606240E081E292E00E94CC
:100EB000190484E08093270240E06CE081E292E034
:100EC0000E94190440E061E081E292E00E9419046E
:100ED000CBE3DFE1CE010197F1F782E080932802B6
:100EE00040E066E081E292E00E94190440E062E0A6
:100EF00081E292E00E9419042197F1F788E0809343
:100F00002C0260E081E292E00E94BB0261E089E095
:100F10000E940C0161E089E00E94DE0062E08AE04C
:100F20000E940C0161E08CE00E940C0161E08DE008
:100F30000E940C0160E08DE00E94DE0061E08CE028
:100F40000E94DE008AE00E94B50090930B0280931D
:100F50000A0261E085E00E940C0160E086E00E94E8
:100F60000C0161E084E00E940C0160E083E00E94DB
:100F70000C01C3E0D0E003E210E080E0E82E80E066
:100F8000F82E80E00E945F0486E291E00E94F30365
:100F9000C0900A02D0900B02D0920902C0920802BF
:100FA0008AE00E94B50090930B0280930A02CA94D3
:100FB000CD28B1F4892BA1F48CE00E94B50061E04A
:100FC000892B09F060E08CE00E94DE008DE00E9439
:100FD000B50061E0892B09F060E08DE00E94DE0041
:100FE00060E085E00E94DE00CE010197F1F761E04C
:100FF00085E00E94DE00C8010197F1F760E085E01E
:101000000E94DE0086E00E9490040E94A30826E968
:1010100033E44BE05DE30E94070920E030E040E06C
:101020005FE30E9407090E946B08709307026093B8
:10103000060280E00E945F048FE291E00E94F303C9
:1010400080910602909107020E9436048AE391E0A3
:101050000E94F30360E084E00E94DE00CE0101976D
:10106000F1F761E084E00E94DE00C8010197F1F72A
:1010700060E084E00E94DE0083E00E9490040E9411
:10108000A30826E933E44BE05DE30E94070920E072
:1010900030E040E05FE30E9407090E946B08709314
:1010A00005026093040281E00E945F048FE391E0F7
:1010B0000E94F30380910402909105020E9436047D
:1010C0008AE391E00E94F303E114F10409F459CF9B
:1010D0000E94000056CF0E9472086894B1110C94CF
:1010E000010908950E94E60888F09F5798F0B92FEB
:1010F0009927B751B0F0E1F0660F771F881F991F4D
:101100001AF0BA95C9F714C0B13091F00E940009E5
:10111000B1E008950C940009672F782F8827B85FF5
:1011200039F0B93FCCF3869577956795B395D9F7A4
:101130003EF490958095709561957F4F8F4F9F4FAE
:101140000895E89409C097FB3EF4909580957095BA
:1011500061957F4F8F4F9F4F9923A9F0F92F96E903
:10116000BB279395F695879577956795B795F11178
:10117000F8CFFAF4BB0F11F460FF1BC06F5F7F4F15
:101180008F4F9F4F16C0882311F096E911C0772327
:1011900021F09EE8872F762F05C0662371F096E830
:1011A000862F70E060E02AF09A95660F771F881FFF
:1011B000DAF7880F9695879597F9089557FD905817
:1011C000440F551F59F05F3F71F04795880F97FB0B
:1011D000991F61F09F3F79F08795089512161306C5
:1011E0001406551FF2CF4695F1DF08C016161706F4
:1011F0001806991FF1CF8695710561050894089529
:10120000E894BB2766277727CB0197F908950E94BA
:101210001A090C948B090E947D0938F00E948409F8
:1012200020F0952311F00C9474090C947A09112480
:101230000C9401090E94DE0870F3959FC1F3950F8D
:1012400050E0551F629FF001729FBB27F00DB11D4A
:10125000639FAA27F00DB11DAA1F649F6627B00DDA
:10126000A11D661F829F2227B00DA11D621F739FC3
:10127000B00DA11D621F839FA00D611D221F749FD1
:101280003327A00D611D231F849F600D211D822F18
:10129000762F6A2F11249F5750409AF0F1F088233F
:1012A0004AF0EE0FFF1FBB1F661F771F881F91506C
:1012B0005040A9F79E3F510580F00C9474090C949E
:1012C00001095F3FE4F3983ED4F3869577956795DF
:1012D000B795F795E7959F5FC1F7FE2B880F911D96
:1012E0009695879597F9089597F99F6780E870E03C
:1012F00060E008959FEF80EC089500240A9416168C
:10130000170618060906089500240A9412161306F3
:10131000140605060895092E0394000C11F4882381
:1013200052F0BB0F40F4BF2B11F460FF04C06F5F9D
:101330007F4F8F4F9F4F0895A1E21A2EAA1BBB1B10
:10134000FD010DC0AA1FBB1FEE1FFF1FA217B30791
:10135000E407F50720F0A21BB30BE40BF50B661FA7
:10136000771F881F991F1A9469F76095709580956B
:1013700090959B01AC01BD01CF010895EE0FFF1FB9
:101380000590F491E02D0994F894FFCF00004000FF
:1013900014005400000000008C025F02A20335021A
:1013A000580245023602000000003004A101A203E9
:1013B000CE014974656D733A2030004469737461DD
:1013C0006E6365313A0020436D2000446973746197
:0613D0006E6365323A0075
:107E0000112484B714BE81FFF0D085E080938100F7
:107E100082E08093C00088E18093C10086E0809377
:107E2000C20080E18093C4008EE0C9D0259A86E02C
:107E300020E33CEF91E0309385002093840096BBD3
:107E4000B09BFECF1D9AA8958150A9F7CC24DD24C4
:107E500088248394B5E0AB2EA1E19A2EF3E0BF2EE7
:107E6000A2D0813461F49FD0082FAFD0023811F036
:107E7000013811F484E001C083E08DD089C08234E0
:107E800011F484E103C0853419F485E0A6D080C0E4
:107E9000853579F488D0E82EFF2485D0082F10E0AE
:107EA000102F00270E291F29000F111F8ED06801E7
:107EB0006FC0863521F484E090D080E0DECF843638
:107EC00009F040C070D06FD0082F6DD080E0C81688
:107ED00080E7D80618F4F601B7BEE895C0E0D1E017
:107EE00062D089930C17E1F7F0E0CF16F0E7DF06D8
:107EF00018F0F601B7BEE89568D007B600FCFDCFD4
:107F0000A601A0E0B1E02C9130E011968C91119780
:107F100090E0982F8827822B932B1296FA010C0160
:107F200087BEE89511244E5F5F4FF1E0A038BF0790
:107F300051F7F601A7BEE89507B600FCFDCF97BE46
:107F4000E89526C08437B1F42ED02DD0F82E2BD052
:107F50003CD0F601EF2C8F010F5F1F4F84911BD097
:107F6000EA94F801C1F70894C11CD11CFA94CF0C13
:107F7000D11C0EC0853739F428D08EE10CD085E9AC
:107F80000AD08FE07ACF813511F488E018D01DD067
:107F900080E101D065CF982F8091C00085FFFCCF94
:107FA0009093C60008958091C00087FFFCCF809118
:107FB000C00084FD01C0A8958091C6000895E0E648
:107FC000F0E098E1908380830895EDDF803219F02E
:107FD00088E0F5DFFFCF84E1DECF1F93182FE3DFCA
:107FE0001150E9F7F2DF1F91089580E0E8DFEE27F6
:047FF000FF270994CA
:027FFE00040479
:00000001FF
