:020000040000FA
:100000000C9462000C948A000C948A000C948A0070
:100010000C948A000C948A000C948A000C948A0038
:100020000C948A000C948A000C948A000C948A0028
:100030000C948A000C948A000C948A000C948A0018
:100040000C9408040C948A000C948A000C948A0086
:100050000C948A000C948A000C948A000C948A00F8
:100060000C9452040C948A00000000002400270025
:100070002A0000000000250028002B0000000000DE
:1000800023002600290004040404040404040202DA
:100090000202020203030303030301020408102007
:1000A0004080010204081020010204081020000012
:1000B0000008000201000003040700000000000027
:1000C0000000710511241FBECFEFD8E0DEBFCDBF09
:1000D00011E0A0E0B1E0E6E8FDE002C005900D927D
:1000E000A832B107D9F722E0A8E2B1E001C01D9221
:1000F000A730B207E1F710E0C2E6D0E004C02197D4
:10010000FE010E94BB06C136D107C9F70E949105C6
:100110000C94C1060C940000833081F028F48130E7
:1001200099F08230A9F008958730A9F08830C9F09D
:100130008430B1F4809180008F7D03C08091800075
:100140008F7780938000089584B58F7784BD08955C
:1001500084B58F7DFBCF8091B0008F778093B00006
:1001600008958091B0008F7DF9CFCF93DF93282F32
:1001700030E0F901E255FF4F8491F901E656FF4F57
:10018000D491F901EA57FF4FC491CC23A1F081111A
:100190000E948C00EC2FF0E0EE0FFF1FE458FF4FA1
:1001A000A591B491EC91ED2381E090E009F480E019
:1001B000DF91CF91089580E090E0FACF1F93CF9325
:1001C000DF93282F30E0F901E255FF4F8491F901C8
:1001D000E656FF4FD491F901EA57FF4FC491CC2363
:1001E000A9F0162F81110E948C00EC2FF0E0EE0F89
:1001F000FF1FEE58FF4FA591B4918FB7F894EC9183
:10020000111108C0D095DE23DC938FBFDF91CF9111
:100210001F910895DE2BF8CFCF93DF9390E0FC0180
:10022000E656FF4F24918A579F4FFC018491882303
:10023000D1F090E0880F991FFC01E859FF4FA5917C
:10024000B491FC01EE58FF4FC591D491623071F426
:100250009FB7F8943C91822F809583238C93E881FB
:100260002E2B28839FBFDF91CF9108958FB7F894ED
:10027000EC912E2B2C938FBFF6CF3FB7F894809143
:10028000EB019091EC01A091ED01B091EE0126B54A
:10029000A89B05C02F3F19F00196A11DB11D3FBFBE
:1002A000BA2FA92F982F8827BC01CD01620F711D8D
:1002B000811D911D42E0660F771F881F991F4A9587
:1002C000D1F708958F929F92AF92BF92CF92DF9213
:1002D000EF92FF924B015C010E943D016B017C019A
:1002E0000E943D016C197D098E099F09683E73408B
:1002F00081059105A8F321E0821A9108A108B108AF
:1003000088EEC80E83E0D81EE11CF11C8114910414
:10031000A104B10429F7FF90EF90DF90CF90BF9038
:10032000AF909F908F90089508950895AF92BF92D7
:10033000CF92DF92EF92FF920F931F93CF93DF93B1
:100340006C017B018B01040F151FEB015E01AE18E0
:10035000BF08C017D10759F06991D601ED91FC9102
:100360000190F081E02DC6010995892B79F7C5012F
:10037000DF91CF911F910F91FF90EF90DF90CF9081
:10038000BF90AF900895089520916901260F3327FB
:10039000331F21323105ECF42091B201FC0190E0D1
:1003A00080E0243069F082E00895A09169012191F4
:1003B000AC01475B5E4FA40FB52FB11D2C93019686
:1003C000861798F380916901680F6093690180E056
:1003D000089581E008951092B20181E08093B10107
:1003E00010928C0161E082E10E94DE0061E083E115
:1003F0000E94DE00E9EBF0E080818E7F80838081C7
:100400008D7F808388E48093B80085E48093BC006E
:100410000895CF93DF9391E0909348018823B9F03A
:10042000C091B800D091BA008091BC008A7B8093C3
:10043000BC0060E082E10E94DE0060E083E10E9497
:10044000DE000E94EB01D093BA00C093B800DF91A8
:10045000CF9108950895E091E1018091E001E817BE
:1004600030F4F0E0E85DFE4F808190E008958FEF7A
:100470009FEF08959091E1018091E0012FEF3FEF10
:10048000981748F4E92FF0E0E85DFE4F208130E056
:100490009F5F9093E101C90108958091E0019091DF
:1004A000E101891B990B0895CF92DF92EF92FF92A1
:1004B0000F931F93CF93DF937C01CB018A0120918F
:1004C000B801222389F0EB016B01C40ED51ECC15B7
:1004D000DD0569F06991D701ED91FC910190F08102
:1004E000E02DC7010995F3CF642F0E94C401C80114
:1004F000DF91CF911F910F91FF90EF90DF90CF9000
:100500000895CF93DF931F92CDB7DEB76983209113
:10051000B8012223F9F02091DE01203258F021E0C9
:1005200030E0FC013383228390E080E00F90DF9184
:10053000CF9108958091DF01E82FF0E0E754FE4F5E
:10054000998190838F5F8093DF018093DE0181E04A
:1005500090E0ECCF61E0CE0101960E94C401F7CF9C
:10056000CF92DF92EF92FF920F931F93CF93DF937F
:10057000FC01C48121E02093B801C093D9011092FD
:10058000DF011092DE018385682B8FEE91E00E94DF
:100590008102D091DE01D13208F092C00E943D016B
:1005A0006B017C018091B201811165C082E0809372
:1005B000B20181E08093B1018FEF8093B00110927E
:1005C000AF01D093AE01A9EBB1E0EEE8F1E080E03D
:1005D000D81385C010928D0180918D01CC0FC82B4E
:1005E000C0938D0180918C01813009F07CC0109204
:1005F0008C010E943D016B017C0180918D018093F3
:10060000BB008091B4019091B501A091B601B09169
:10061000B701892B8A2B8B2B99F00E943D01009109
:10062000B4011091B5012091B6013091B7016C1958
:100630007D098E099F090617170728073907E0F17A
:100640008091BC0083FDD9CF85EC8093BC000E94D3
:100650003D016B017C018091B201823009F445C0FB
:100660008091B0018F3F61F18091B001803241F102
:100670008091B00125C08091B4019091B501A09105
:10068000B601B091B701892B8A2B8B2B09F48ACF45
:100690000E943D010091B4011091B5012091B60175
:1006A0003091B7016C197D098E099F09061717074C
:1006B0002807390708F076CF8091B3010E9409021C
:1006C0001092DF011092DE011092B801DF91CF91FC
:1006D0001F910F91FF90EF90DF90CF9008959D9123
:1006E00091938F5F75CF85EEB0CF8091B4019091DB
:1006F000B501A091B601B091B701892B8A2B8B2B44
:1007000009F4A9CF0E943D010091B4011091B501F7
:100710002091B6013091B7016C197D098E099F09AE
:10072000061717072807390708F095CFC5CF90E0BF
:1007300080E008950F931F93CF938C01C62F0E94E2
:10074000B0026C2F6460C8010E94B0026C2F6B7FF6
:10075000C8010E94B00283EC90E00197F1F7CF91BD
:100760001F910F9108950F931F93CF93DF938C01E7
:10077000D62FC42F607F642B0E949A0380E1D89FFC
:10078000B00111246C2BC801DF91CF911F910F9103
:100790000C949A0341E00E94B30381E090E0089535
:1007A00085ED8093BC008091B4019091B501A0913A
:1007B000B601B091B7010796A11DB11D23E0B69512
:1007C000A795979587952A95D1F72091BC0024FD90
:1007D00003C01092B20108954091B4015091B50147
:1007E0006091B6017091B701452B462B472B69F3F9
:1007F0000097A105B10541F02AE22A95F1F700C062
:100800000197A109B109E1CF8091B3010C940902CC
:100810001F920F920FB60F9211242F933F938F9335
:100820009F93AF93BF938091E7019091E801A091CE
:10083000E901B091EA013091E60123E0230F2D3761
:1008400058F50196A11DB11D2093E6018093E701A3
:100850009093E801A093E901B093EA018091EB0144
:100860009091EC01A091ED01B091EE010196A11DD6
:10087000B11D8093EB019093EC01A093ED01B09337
:10088000EE01BF91AF919F918F913F912F910F906A
:100890000FBE0F901F90189526E8230F0296A11DFA
:1008A000B11DD2CF1F920F920FB60F9211242F932A
:1008B0003F934F935F936F937F938F939F93AF93E8
:1008C000BF93EF93FF938091B900887F803609F43E
:1008D0004AC0F0F5883209F4A7C018F5803109F450
:1008E0009BC0B8F4882309F4F9C0883009F494C097
:1008F000FF91EF91BF91AF919F918F917F916F91F8
:100900005F914F913F912F910F900FBE0F901F90CD
:100910001895883109F488C0803251F78093B0016E
:1009200014C0803409F49DC040F48033B9F3883397
:10093000F9F68093B00185ECB0C0803509F485C02C
:10094000883509F496C0883499F60E94D003D0CF38
:10095000883909F48CC038F5883729F050F4883686
:1009600011F0803729F683E08093B20110928B0159
:1009700057C0883809F47BC0803919F0803809F0F5
:10098000B7CF80918B01803208F071C0E0918B016C
:1009900081E08E0F80938B018091BB00F0E0E559E0
:1009A000FE4F80833DC0803B39F0E0F4803A09F48B
:1009B00079C0883A09F09CCF84E08093B20110920C
:1009C0006A0110926901E091DC01F091DD01099565
:1009D0008091690181110FC081E0809369011092BB
:1009E000490109C0803C09F4A6CF883C09F4A3CF93
:1009F000883B09F07DCFE0916A0181E08E0F809302
:100A00006A01F0E0E75BFE4F80818093BB0090912C
:100A10006A018091690129C080918D018093BB009A
:100A200085EC8093BC0064CF9091AF018091AE01C2
:100A3000981758F5E091AF0181E08E0F8093AF01D8
:100A4000F0E0E257FE4F8081E9CFE091AF0181E015
:100A50008E0F8093AF018091BB00F0E0E257FE4F14
:100A600080839091AF018091AE019817C8F285E81C
:100A7000D8CFE091AF0181E08E0F8093AF018091DC
:100A8000BB00F0E0E257FE4F80838091B1018111FD
:100A90005CCF81E080938C0184EA8093BC0010924B
:100AA000B20126CF85EC8093BC001092B2018091F8
:100AB0008B01803230F4E0918B01F0E0E559FE4F7C
:100AC000108260918B0170E0E091DA01F091DB011E
:100AD0008BE691E0099510928B010ACF1092B0013C
:100AE00034CFEFEEF1E01382128288EE93E0A0E0C3
:100AF000B0E084839583A683B78384E091E09183FB
:100B00008083EBEFF1E01382128286E191E0918322
:100B1000808380E2848380E1818782E082871386FC
:100B20000895789484B5826084BD84B5816084BD65
:100B300085B5826085BD85B5816085BD80916E007B
:100B4000816080936E0010928100809181008260AC
:100B500080938100809181008160809381008091E9
:100B600080008160809380008091B10084608093D8
:100B7000B1008091B00081608093B00080917A00D4
:100B8000846080937A0080917A00826080937A00FA
:100B900080917A00816080937A0080917A008068E9
:100BA00080937A001092C1001092E1011092E0014E
:100BB0001092DF011092DE010E94EB0184E991E0C6
:100BC0009093DD018093DC0185E991E09093DB0156
:100BD0008093DA011092000280910502823018F0B1
:100BE00098E0909300028093030262E370E080E05B
:100BF00090E00E946201609106028BEF91E00E94FA
:100C0000B00268EE73E080E090E00E94620160E371
:100C10008BEF91E00E949A03CBE4D6E4CE010197DA
:100C2000F1F760E38BEF91E00E949A032197F1F7CF
:100C300060E38BEF91E00E949A0383E592E00197D5
:100C4000F1F760E28BEF91E00E949A03609100025D
:100C5000606240E08BEF91E00E94B30384E08093F8
:100C6000010240E06CE08BEF91E00E94B30340E0B2
:100C700061E08BEF91E00E94B303CBE3DFE1CE01B3
:100C80000197F1F782E08093020240E066E08BEF8B
:100C900091E00E94B30340E062E08BEF91E00E949C
:100CA000B3032197F1F788E08093060260E08BEFB1
:100CB00091E00E94B00261E089E00E940C0161E0D5
:100CC00089E00E94DE0062E08AE00E940C0161E09F
:100CD0008CE00E940C0161E08DE00E940C0160E05C
:100CE0008DE00E94DE0061E08CE00E94DE008AE080
:100CF0000E94B5009093E5018093E40100E010E0CC
:100D000040E060E88BEF91E00E94B30348E050E0E0
:100D10006EE171E08BEF91E00E949601C091E401D9
:100D2000D091E501D093E301C093E2018AE00E94F3
:100D3000B5009093E5018093E4012197B1F4892BEC
:100D4000A1F48CE00E94B50061E0892B09F060E01D
:100D50008CE00E94DE008DE00E94B50061E0892BEE
:100D600009F060E08DE00E94DE000115110541F2FE
:100D70000E940000C5CFEE0FFF1F0590F491E02DFB
:100D80000994F894FFCF00000000810254029703F9
:100D90002A024D023A022B0200000000CA0396010B
:0E0DA0009703C3014974656D733A203000005B
:107E0000112484B714BE81FFF0D085E080938100F7
:107E100082E08093C00088E18093C10086E0809377
:107E2000C20080E18093C4008EE0C9D0259A86E02C
:107E300020E33CEF91E0309385002093840096BBD3
:107E4000B09BFECF1D9AA8958150A9F7CC24DD24C4
:107E500088248394B5E0AB2EA1E19A2EF3E0BF2EE7
:107E6000A2D0813461F49FD0082FAFD0023811F036
:107E7000013811F484E001C083E08DD089C08234E0
:107E800011F484E103C0853419F485E0A6D080C0E4
:107E9000853579F488D0E82EFF2485D0082F10E0AE
:107EA000102F00270E291F29000F111F8ED06801E7
:107EB0006FC0863521F484E090D080E0DECF843638
:107EC00009F040C070D06FD0082F6DD080E0C81688
:107ED00080E7D80618F4F601B7BEE895C0E0D1E017
:107EE00062D089930C17E1F7F0E0CF16F0E7DF06D8
:107EF00018F0F601B7BEE89568D007B600FCFDCFD4
:107F0000A601A0E0B1E02C9130E011968C91119780
:107F100090E0982F8827822B932B1296FA010C0160
:107F200087BEE89511244E5F5F4FF1E0A038BF0790
:107F300051F7F601A7BEE89507B600FCFDCF97BE46
:107F4000E89526C08437B1F42ED02DD0F82E2BD052
:107F50003CD0F601EF2C8F010F5F1F4F84911BD097
:107F6000EA94F801C1F70894C11CD11CFA94CF0C13
:107F7000D11C0EC0853739F428D08EE10CD085E9AC
:107F80000AD08FE07ACF813511F488E018D01DD067
:107F900080E101D065CF982F8091C00085FFFCCF94
:107FA0009093C60008958091C00087FFFCCF809118
:107FB000C00084FD01C0A8958091C6000895E0E648
:107FC000F0E098E1908380830895EDDF803219F02E
:107FD00088E0F5DFFFCF84E1DECF1F93182FE3DFCA
:107FE0001150E9F7F2DF1F91089580E0E8DFEE27F6
:047FF000FF270994CA
:027FFE00040479
:00000001FF
